:020000040800F2
:10000000FF170020E50D0008350E0008350E00082A
:1000100000000000000000000000000000000000E0
:10002000000000000000000000000000350E000885
:100030000000000000000000350E0008DD07000889
:10004000350E0008350E0008350E0008350E000884
:10005000350E0008350E0008350E0008350E000874
:10006000350E0008350E0008350E0008350E000864
:10007000350E0008350E0008350E0008350E000854
:10008000350E00080000000000000000350E0008DA
:1000900000000000350E0008350E0008350E00087F
:1000A00000000000350E0008350E0008350E00086F
:1000B000350E000800000000E9070008CD07000821
:1000C00010B5064C2378002B07D1054B002B02D02E
:1000D000044800E000BF0123237010BD800500200C
:1000E00000000000D03A000808B5084B002B03D0F0
:1000F0000748084900E000BF07480368002B03D009
:10010000064B002B00D0984708BDC04600000000F9
:10011000D03A00088405002080050020000000007F
:1001200002B4714649084900095C49008E4402BC8A
:100130007047C04603B47146490840004900095A57
:1001400049008E4403BC7047002934D001230022AB
:1001500010B488422CD301242407A14204D2814246
:1001600002D209011B01F8E7E400A14204D2814256
:1001700002D249005B00F8E7884201D3401A1A43D3
:100180004C08A04202D3001B5C0822438C08A0420A
:1001900002D3001B9C082243CC08A04202D3001BC0
:1001A000DC082243002803D01B0901D00909E3E73A
:1001B000101C10BC7047002801D00020C04307B4B9
:1001C000024802A14018029003BDC0461900000079
:1001D0000029F0D003B5FFF7B9FF0EBC4243891ADE
:1001E0001847C0467047C04600B593B001F0FCFA0E
:1001F00000F022F800F02EFB00F046FD00F062FA5D
:10020000022000F081FD002000F020FC002802D137
:1002100000F0B2FDF7E709A8032100F007FC002871
:10022000F6D109A901A800F02BFC81B20029EFD07A
:1002300001A800F029FAEBE7F0B52023A3B015934D
:1002400001231D938026072300250593B60203236F
:1002500015A8069309961E95079508950E9502F028
:100260001FFF291C05A803F07DF909A803F02CFA4B
:1002700003F024FAFA218900FFF766FF0127234CD7
:1002800001F0ACFF7F42042001F0C2FF291C381CA2
:100290002A1C01F067FFE26980231B051A43E26113
:1002A000E2690FA813400193019B80239B051093E3
:1002B000174B0F951293222313932023149303F0CB
:1002C0009BFA03F0C5FA134803F0CAFA2A1C381C3B
:1002D000291C01F047FF62698023DB031A43626136
:1002E000626913400293029B6369334363616369EC
:1002F0001E400396039B62698023DB021A436261FE
:10030000626913400493049B23B0F0BD00100240C7
:100310007FBB0000B80B00000022C31D02728342A5
:100320000AD30F220A40092A01D8303200E03732BE
:100330001A700909013BF2E77047000007B50B4B43
:1003400002689A4211D10A4B8022D96912041143E2
:10035000D961DB691F201A40019201210022019B13
:1003600001F000FF1F2001F02FFF07BD005C0040DF
:100370000010024008B5011C87239B00ED31C058D6
:10038000FF3100F0C9FF08BD8722920008B5031CA9
:1003900080581C224A439B18FC33DA6900F0F0FFB6
:1003A00008BD8722920008B5031C80581C224A43CE
:1003B0009B189A6B01F01EF808BD08B587239B00B7
:1003C000C05801F0A5F808BD38B58724A400051C65
:1003D0000121005901F087F8285901F060F838BD73
:1003E00087239B0010B5041CC05801F07FF8A36957
:1003F000002B04D0024B06211A690A431A6110BD72
:1004000000ED00E0836910B5041C002B06D0064BFC
:1004100006211A698A431A61FFF70EFF87239B00A2
:10042000E05801F06DF810BD00ED00E070B58722D6
:10043000051C1B48920085501A4A8826B6000260A7
:1004400008220024A851426002228260C460026136
:100450008461C461046201F0A3FFA859211C221C1D
:10046000182302F003FEA859221C8021582302F011
:10047000FDFDA859221C8121C02302F0F7FD0121B6
:100480008823A859221C8B4002F0F0FD8023A85934
:100490008221221C5B0002F0E9FD201C70BDC046D9
:1004A00048080020005C004008B588239B00C05825
:1004B00001F0BCFF0223032801D8024B1B5C181C6F
:1004C00008BDC046103B000810B5141C88229200DD
:1004D00080581A1C231C01F0C9FF0223032801D8ED
:1004E000014B1B5C181C10BD143B000808B5882389
:1004F0009B00C05802F00EF90223032801D8024BDA
:100500001B5C181C08BDC0461C3B000808B58823AE
:100510009B00C05802F048FA0223032801D8024B7E
:100520001B5C181C08BDC046183B000808B5882392
:100530009B00C05802F082FA0223032801D8024B24
:100540001B5C181C08BDC046203B000888239B008C
:10055000C35848B21C22002806DA7F2001404A43D3
:100560009B182833987803E051435B18FF33D87AFF
:100570007047000008B588239B00C05801F05FFF5A
:100580000223032801D8024B1B5C181C08BDC0467F
:10059000083B000810B58824A400005902F0BEFAF8
:1005A0000223032801D8024B1B5C181C10BDC04657
:1005B0000C3B000810B58824A400005902F05CF937
:1005C0000223032801D8024B1B5C181C10BDC04637
:1005D000243B000808B588239B00C05802F0DCF9D2
:1005E00008BD0000004870479C05002070470020AF
:1005F00070470000F8B50F78061C041CA31BDBB283
:10060000BB4211D223780B480B4D0D2B05D1297815
:1006100000F084FA00232B7004E02B785A1C2A7017
:100620002278C2540134E9E7044801F0B3F800200D
:10063000F8BDC046880A0020BC070020C80A002078
:1006400010B5064C0022201C054901F075F8201C4D
:10065000044901F07CF8002010BDC046C80A002003
:10066000A60A0020680A002021280AD10023C222FD
:100670000B704A70CB7001220B714B7108238A708A
:100680008B7100207047000038B50A1C00240B490C
:100690000023651801342B70202CF8D19CB29442B1
:1006A00003D2C45CCC540133F8E7054C201C01F0A4
:1006B00043F8201C01F053F838BDC046A60A0020BC
:1006C000C80A002010B5094C0022201C084900F07F
:1006D000E6FD201C074900F0FCFD0749201C01F045
:1006E00022F8201C00F0FEFD10BDC046C80A002004
:1006F000100000208C000020000000201223014880
:100700000B80704730000020042301480B807047A5
:100710002C00002010B5044C0A1C0448211C00F0D9
:1007200056FD201C10BDC046EC0C0020283B0008E4
:1007300030B50D4B89B00D1C01A81968FFF7ECFD11
:100740000A4B03A81968FFF7E7FD094B05A81968CC
:10075000FFF7E2FD074C01A8211C2A1C00F037FD21
:10076000201C09B030BDC046ACF7FF1FB0F7FF1F1B
:10077000B4F7FF1FEC0C002010B5044C0A1C044811
:10078000211C00F024FD201C10BDC046EC0C0020F4
:10079000303B000810B5044C0A1C0448211C00F032
:1007A00016FD201C10BDC046EC0C00203C3B000890
:1007B00010B5044C0A1C0448211C00F008FD201C44
:1007C00010BDC046EC0C0020473B000808B50248AD
:1007D00002F040FA08BDC0464808002008B501F004
:1007E00013F801F024FD08BD08B500F045F901F04B
:1007F000CBFB08BD114B01221968114319605868E1
:100800000F490140596018680E4901401960186885
:100810000D490140196058680C4901405960D96A76
:100820000F208143D962186B094901401963596B44
:100830009143002259639A607047C04600100240FD
:100840000CB8FF08FFFFF6FEFFFFFBFFFFFFC0FF36
:100850002CFEFFFF1C4B8022D96910B59204114376
:10086000D961D96988B00A400192019A59698022F8
:10087000D202114359615B6900241A400292029B23
:10088000C0239B00039302230493032306930F4882
:10089000042303A90793059401F0CEFC0C4B01221D
:1008A0001C60DA611A625C609C60DC609C615C6167
:1008B0001C615C62074B30221A60074B074A1A60C2
:1008C000074B1C7008B010BD001002400004004827
:1008D0000C08002008080020C00700200064004029
:1008E000EC0E002070B5124D2B78002B1FD1114A51
:1008F000114C126801266260C0229202226180229D
:10090000920362610D4A201C1278A360E360A36128
:1009100023626262A362E3622363E66100F0FDFF8B
:10092000201C074900F08EFF2E7000F009FA70BD00
:10093000EC0E002008080020C0070020040800205A
:100940000C08002008B5084B1A78012A0AD1074A7A
:1009500080211268090210680143116000221A7098
:1009600000F0B6F908BDC046EC0E0020C00700201C
:1009700008B5124B1B78012B1FD008281BD8104B31
:10098000FFF7CEFB05080B0D0F111315170096226C
:1009900092000FE0962252000CE078220AE03C22FE
:1009A00008E0302206E0182204E00C2202E00822CF
:1009B00000E006221A6000F08BF908BDEC0E002062
:1009C0000808002008B5074B1B78012B09D0064BFF
:1009D000002803D0802212069A6000E0986000F0A0
:1009E00077F908BDEC0E0020C007002008B5064BC3
:1009F0001B78012B07D0054B0022002800D10122D3
:100A00001A7000F065F908BDEC0E00200408002003
:100A1000054B10B50A211863181C01F01BF8041CC3
:100A200000F056F9201C10BDC0070020064B10B581
:100A30000A1C58630021181C01F0F4F8041C00F093
:100A40007FF9201C10BDC046C0070020084B021CC7
:100A50001B78002083420AD0064B1B68824201D1DA
:100A6000D86800E01869032318404042C00F70475F
:100A7000EC0E0020C007002000487047C00700208F
:100A800070B500230022C25401331E2BFAD1CB686B
:100A9000934201D1742302E0022B01D1722303702F
:100AA0008B680A680324042B04D103780824203BB4
:100AB00003704A68231C0F251540C554013BDBB267
:100AC0001209002BF7D10D69A21C013405550C69E0
:100AD000A3420ED2CC18267D551C36098654267D9D
:100AE0000F24EDB2023234400133D2B24455DBB2AE
:100AF000EDE7031C191A0131C9B2914208D25978A5
:100B0000092901D8303100E0373159700133F1E75C
:100B10000D238354013250B270BD000070B5031C28
:100B200088B01A1A0132D2B28A420CD25A78602A9C
:100B300001D9573A04E0402A01D9373A00E0303A67
:100B40005A700133EDE703784F2B02D1FFF7CAFE4D
:100B500092E0432B02D1FFF7F5FE8DE0532B1FD11E
:100B60004078FF23082800D987E0FFF7D9FA050766
:100B7000090B0D0F13151700002008E0012006E0F7
:100B8000022004E0032002E0042000E00520FFF73B
:100B9000EFFE71E00620FAE70720F8E70820F6E705
:100BA0002022191C91434D2906D14078012800D0FC
:100BB0000020FFF707FF5FE0412906D140780128B8
:100BC00000D00020FFF712FF56E0542905D1002283
:100BD0000492742B17D100231AE0522906D1022265
:100BE0000492722BF7D0522B11D005E0562901D177
:100BF000234804E04E2B01D0FF233EE0214805218D
:100C0000FFF742FD38E0722BE5D0542BF4D10423DA
:100C10000393039A002301930293042A0AD11A1C16
:100C2000C1184978120101338A18082BF8D10292B1
:100C3000092309E01A1C811849781B010132CB18DD
:100C4000032AF8D101930423C15C5A1C0591082999
:100C5000D2D800238B420CD201ADEC188618855CEB
:100C600076782D017519023201332575D2B2DBB2C7
:100C7000F0E701A8FFF7CCFE002358B208B070BD22
:100C8000653B00086B3B00080F4B8022596930B56B
:100C9000D202114359615B6987B01A4000920B4D33
:100CA000009B032301240193281C002301A9059321
:100CB00002940394049401F0BFFA281C211C221C06
:100CC00001F068FB07B030BD00100240000400488E
:100CD00038B50A4C2568002D0ED100F09DFD084B5B
:100CE0001B68C01A192807D9064801212A1C01F0DF
:100CF00051FB00F091FD206038BDC0463408002053
:100D0000400800200004004838B5051C0024AC420F
:100D100012D002210122094801F03CFB642000F0BE
:100D200081FD06480221002201F034FB01346420D9
:100D300000F078FDE4B2EAE738BDC04600040048A0
:100D400010B50A4C2368002B0ED100F065FD084B4E
:100D50001B68C01A192807D906480221012201F090
:100D600019FB00F059FD206010BDC0463808002076
:100D70003C0800200004004810B5154C2368002BE7
:100D800010D000F049FD2368C01A19280AD911486B
:100D90000221002201F0FEFA0023236000F03CFD56
:100DA0000D4B18600D4C2368002B10D000F034FD63
:100DB0002368C01A19280AD9012106480A1C01F023
:100DC000E9FA0023236000F027FD054B186010BDF1
:100DD00038080020000400483C08002034080020A7
:100DE000400800200D488546002103E00C4B5B586D
:100DF000435004310B480C4B42189A42F6D30B4A2D
:100E000002E0002313600432094B9A42F9D3FFF742
:100E1000F1FC02F06BFDFFF7E7F9FEE7FF1700209A
:100E2000883B00080000002080050020800500208D
:100E3000F40E0020FEE70B7803704B784370CB78FC
:100E40008A781B02D31843804B790A791B02D31886
:100E50008380CB798A791B02D318C380704710B581
:100E60008021041CFFF752FB201C0021FFF74EFBE2
:100E700010BD0000F7B5041C48780D1C092800D9E6
:100E80000FE1FFF757F9D900F6000E01EF000E0150
:100E90007A000A000E01C7009B004B88180A01382F
:100EA000062800D9FDE0FFF745F9070010001F00F4
:100EB000FC00FC003C00490084239B00E358694689
:100EC000207C1B680631984736E08523227C9B00F6
:100ED000E358002A01D19B6A00E0DB6A68460630CD
:100EE00098470223011C36E0D8B2052800D9D8E083
:100EF00084229200237CA258FFF712F90305070908
:100F00000B0D526808E0926806E0D26804E01269AE
:100F100002E0526900E092696946181C0631904768
:100F20000AE0237C002B00D0BBE085239B00E35824
:100F300068465B6B06309847011C0DE0237C002B54
:100F400000D0AEE085239B00E35868461B6B06305B
:100F500098470723011C4B706E4606363288002ADC
:100F600000D1A2E0E888002800D19EE0031C904256
:100F700000D9131C9AB233805CE08B88002B00D020
:100F80008FE0CB88002B00D08BE04F88FE267F239C
:100F900076001F40A35D032B00D182E0FF235B009E
:100FA000E754391C201CFFF7E5FA201C00F05FF91C
:100FB0000223002F00D10123A35576E089783C4E0F
:100FC000317001296DD8FE235B00E25C022A02D059
:100FD000032A07D065E000295FD001210322616068
:100FE000E25411E0002906D10222E254201C616083
:100FF00000F08AF951E0616801294ED0C9B2201C85
:1010000000F082F931786160201C00F070F902284C
:1010100043D146E0CA88012A43D1FE235B00E35C4A
:10102000022B03D0032B3CD1211D03E00023211C04
:10103000A3600831201C12E0FE235B00E35C023B4E
:10104000012B2ED80123E36081239B00E358002B62
:1010500001D00323E360211C0C31201C022200F08C
:10106000D4F822E04B88012B1FD181229200A3509B
:101070000CE0FE235B00E35C023B012B11D84B88A4
:10108000012B12D1812300229B00E25085239B007B
:10109000E358201C9B68291C9847201C00F0E7F8A7
:1010A00003E0201C291CFFF7DAFE0020FEBDC0462D
:1010B0004408002038B5FE235B00C35C041C0D1CF3
:1010C000032B0ED10B79012B0BD885239B00C35822
:1010D0009B689847EB88002B07D1201C00F0C7F8CD
:1010E00003E0201C291CFFF7BAFE002038BD38B5EC
:1010F0000D1C041C8B8828786022D9B20240202A5B
:1011000007D185239B00E358201C9B68291C984726
:101110005BE06A78012A13D0002A2BD0032A54D12D
:10112000FE225200A25C022A2CD0032A49D16A88EE
:10113000002A14D14B0612D0201CFFF7E7F90EE06D
:10114000FE225200A25C022A1CD0032A39D16A88EE
:10115000002A3AD14B0609D0201CFFF7E7F9852376
:101160009B00E358201C9B68291C9847201C00F01A
:101170007EF82AE0FE225200A25C022A02D0032A54
:1011800006D01EE04A0620D0201CFFF7BFF91CE065
:101190007F250D401A0601D5013500E010352D01DF
:1011A0006519201C0435FFF7D1F9002802D001236E
:1011B0002B6000E02860201C291C022200F025F88A
:1011C00003E0201C291CFFF74AFE002038BD30B583
:1011D000031E19D01D781C1AE4B2002D01D0013372
:1011E000F8E7631C5B0013800B7003234B70022332
:1011F0000278002A08D05C1CCA54E4B202330022F0
:101200000130DBB20A55F3E730BD10B5131CFA22EA
:101210000C1C5200022181508361C3610021221CF9
:10122000FFF7B8F9002010BD10B50C1C131C0021ED
:10123000221CFFF7AFF9002010BD38B5131C041CA9
:10124000FA220D1CFC340321520081502A1CE36059
:1012500023610021FFF7AEF9002038BD10B50C1C4A
:10126000131C0021221CFFF7A5F9002010BD08B5B2
:10127000FA23002104225B00C2500A1C0B1CFFF75A
:1012800089F9002008BD08B5FA23002105225B007A
:10129000C2500A1C0B1CFFF78DF9002008BD10B5C9
:1012A000002814D085239B00C458002C01D00024B2
:1012B000C450002902D084239B00C1500121FE2389
:1012C0008B40C1540270FFF7B1F8002000E002200B
:1012D00010BD002904D085239B00C150002000E0F0
:1012E0000220704708B5FFF7DFF8002008BD08B5F9
:1012F00085239B00C358002B01D1022003E01B680B
:1013000098470028F9D108BD08B585239B00C3582C
:101310005B689847002008BD38B582239B00C5183C
:10132000041C281CFFF787FD0122FA239340E2509A
:10133000124BE25AFC235B00E25082239B00E15CEB
:101340001F230B40012B0DD0002B06D0022B0ED1FA
:10135000201C291CFFF7CBFE0EE0201C291CFFF7E8
:1013600089FD09E0201C291CFFF7A4FE04E07F236F
:101370009943201CFFF7CAF8002038BD0E02000078
:1013800038B5041C002927D1FA235B00C358032B6E
:101390002ED1451DFF35A868EB6898420BD9C01ABD
:1013A000A860984200D9181C83B2111C201C1A1C7A
:1013B000FFF754FF1CE085239B00E3581B69002BBB
:1013C00006D0FE225200A25C032A01D1201C9847BD
:1013D000201CFFF74CFF0BE085239B00C3589B6943
:1013E000002B05D0FE225200825C032A00D19847D0
:1013F000002038BDF8B5041C0D1E42D1FA235B0055
:10140000C358022B35D1C369066AB34207D99E1B64
:10141000C661B6B2111C321CFFF706FF12E08769E5
:10142000311C381CFEF7D4FE0D1E12D1B74210D36A
:10143000FC267600A3599F420BD2201C2A1CFFF7E2
:10144000F3FEA551201C291C2A1C2B1CFFF7B2F807
:101450000FE085239B00E358DB68002B06D0FE22BB
:101460005200A25C032A01D1201C9847201CFFF7E0
:101470000AFF80239B00E25C012A0ED10022E25485
:101480000BE085239B00C3585B69002B05D0FE222F
:101490005200825C032A00D198470020F8BD002149
:1014A00038B50A1C041C4023FFF70EF8231C402506
:1014B000FC335D6100222B1C201C8021FFF704F807
:1014C0000122FE2393402562E25486239B00E358C9
:1014D000002B06D085239B00E35821795B68201CF4
:1014E0009847002038BD017400207047FE235B0040
:1014F000C15CFE22FF3281540422C2540020704796
:10150000FE23FF33C25CFE235B00C2540020704701
:1015100008B5FE235B00C35C032B06D185239B002B
:10152000C358DB69002B00D09847002008BD8623F4
:101530009B00C358002B04D08522002092009850B5
:1015400000E002207047000038B586239B00C45895
:1015500087239B00C358002B0BD08025AD00605D16
:10156000FF2806D0044A9B68A25C211C9847FF23F1
:101570006355002038BDC0460102000043230380AC
:10158000004870474800002043230380004870470C
:10159000140100204323038000487047D00000203E
:1015A0000A23038000487047C400002070B58626D7
:1015B000B600041C8559FFF70DF883239B00E85003
:1015C000A3590220002B0BD0872381228340824025
:1015D000E358A85883229200A918DB689847002096
:1015E00070BD000070B586239B00C6580B78602242
:1015F000051C0C1C1A4024D0202A29D1CA884878FE
:10160000002A18D05BB2002B09DA87239B00EB5825
:10161000311C9B689847E288281C311C16E0802307
:101620009B00F054CA880B4B281CF254CA88311C0A
:10163000FFF703FE0CE087239B00EB589B6898475D
:1016400006E04B780A2B03D103490122FFF7DDFDA9
:10165000002070BD010200004508002038B581213E
:10166000041C8625FEF742FF0121201CFEF73EFFE9
:10167000AD00201C8221FEF739FF6359002B09D0F1
:1016800087239B00E3585B6898476059FEF7AEFFDD
:1016900000236351002038BDF8B5037C041C812170
:1016A0000222002B09D180239340FEF70DFF022276
:1016B0008023201C0121934006E04023FEF704FF15
:1016C000201C0121022240238726FEF7FDFEB600E2
:1016D000822103220823201CFEF7F6FE301CFEF7B1
:1016E00081FF8627BF00051CE0511AD0A3590026B0
:1016F0001B68984785239B00EE50EE518123277C81
:101700009B00EA58201C0121B74205D180239B0091
:10171000FEF750FF381C05E04023FEF74BFF301C5E
:1017200000E00120F8BD002904D087239B00C150B0
:10173000002000E00220704786239B00C3588220CF
:10174000800019508421890000205A507047862358
:101750009B00C25881239B000020D15070478623F4
:101760009B00C35810B5002B11D0852189005C580F
:101770000122002C0CD15A5082228421890092002F
:101780009A585B5A8121FEF705FF221C00E00222D5
:10179000101C10BD86239B00C35810B5002B0DD024
:1017A0008122047C92009A5801214023002C01D10F
:1017B00080239B00FEF7FEFE002000E0022010BD0B
:1017C000704710B5041C01F079FFFA218900FEF77B
:1017D000BBFC00F003FD01204042211C002200F070
:1017E000C1FC002010BD000008B5064B10211A688E
:1017F00000200A431A60FFF7E4FFFFF7E1FF002033
:1018000008BDC04600200240024B1A6801321A602F
:101810007047C046F00E0020014B18687047C04664
:10182000F00E002037B50190FFF7F6FF019C051C74
:10183000631C5A1E9341E418FFF7EEFF401BA042C1
:10184000FAD337BD036880208000F0B51F58314EB1
:1018500001243E40B4464E6A221C370266463E438F
:1018600034434D691C50872080001E58AA40D44341
:1018700026401E50C86900280FD1832080001E58C2
:10188000CF6826401E508E8838040643ED00902015
:101890005D1980002E500E8810E0012814D183209D
:1018A00080001E580F6816431E508E883804064369
:1018B000ED0090205D1980002E508E898F683804CD
:1018C0000643912080002E508D6981208000002DDC
:1018D00002D11D58254001E01D5815431D500E69C9
:1018E00085208000002E02D11D582C4001E01C589C
:1018F00014431C50096A012904D1872189005858D2
:1019000002435A50802292009958012081439950F5
:101910000020F0BDFFC0FFFF7047F8B5041E00D1E6
:1019200095E0051C3D352B78DBB2002B04D1021C61
:101930003C321370FFF7F0FF236802222A70196807
:10194000914319601A6801210A431A60FFF764FF86
:10195000071C236801225E68164009D1FFF75CFF6F
:10196000C01B0A28F5D903203C34287026706FE08C
:101970005968114269D0A1698022012902D11968F0
:101980000A4302E0196891430A1C1A60E169402287
:10199000012902D119680A4302E0196891430A1C1F
:1019A0001A60216A2022012902D119680A4302E043
:1019B000196891430A1C1A60616A1022012902D138
:1019C00019680A4302E0196891430A1C1A60A16A67
:1019D0000822012902D119680A4302E019689143DB
:1019E0000A1C1A60E16A0422012902D119680A431B
:1019F00002E0196891430A1C1A60A168E2680A4370
:101A000021690A4361690A43616801390A43DA615D
:101A10001A6801218A431A60FFF7FEFE061C22683D
:101A20000123516819420AD0FFF7F6FE801B0A28ED
:101A3000F5D903203C3400232870237008E0506857
:101A4000184002D120642B7002E004232B70012087
:101A5000F8BD0000F7B501910168041C8B685801BE
:101A600006D48B681A0103D48B68DE0000D4C8E06A
:101A7000231C3C331A780220012A00D1C5E0012240
:101A80001A709B181A78D2B2322A05D0622A05D071
:101A9000222A05D1422204E0522202E0722200E012
:101AA00012221A708B6800255F0106D48B6880258E
:101AB0002D051D406B425D4101352A01C0208A1869
:101AC00040001658012333401350236BDE689F6893
:101AD0000096002F05D117583E43B4461E6877057F
:101AE00006E016583743009E3E43B4465E68F70052
:101AF00066463E43165018690F273840009018611B
:101B0000C22040001658BE4316501758009E3E4350
:101B10001650DE7D987D3606000430431E7D30432E
:101B20005E7D360230432E0189198931FF3108600C
:101B3000DE7E987E360600040643187E0643587EF5
:101B4000331C000203434B60C0235B00D1580120CB
:101B50000143D150FFF760FE061C23689A68002DF0
:101B600004D12A4B2A4813401B180AE0012D04D146
:101B7000284B1340284A9B1803E0284B284F13405A
:101B8000DB195A1E9341DBB2002B24D0019F013791
:101B9000E3D0019F002F09D1231C3D3303221A708B
:101BA0002368002D09D19A6880210DE0FFF734FEEB
:101BB000019F801BB842D0D9EEE799688022012DA1
:101BC00001D1120200E012040A439A603C3400235F
:101BD0002370032019E0231C3D331A78D2B2522A15
:101BE00005D0722A05D0422A05D1222204E03222F1
:101BF00002E0622200E001223C3400201A702070D2
:101C000003E03D34042323700120FEBD01000004E5
:101C1000FFFFFFFB0001000800FFFFF700000110BD
:101C20000000FFEFF7B5071C00923C373B78051C1E
:101C30000E1C0220012B00D1F7E001232C1C3B706D
:101C40003D3400290FD12378222B08D02378422B52
:101C500005D02378622B02D02378722B12D1002377
:101C60003B700220E1E0012918D12378322BF6D015
:101C70002378522BF3D02378622BF0D02378722B69
:101C80000CD1ECE72378DBB2322B11D0522B11D0E0
:101C9000122B01D1422310E022230EE02378DBB285
:101CA000222B05D0422B05D0122B05D1522304E064
:101CB000622302E0722300E032232370FFF7ACFDC1
:101CC000019003232968002E15D1CA681A4217D142
:101CD00000980130F5D00099002904D10320002399
:101CE00020703B70A1E0FFF797FD019B0099C01A9F
:101CF0008842E6D9F2E70A691A42E9D0AB6B00E004
:101D00006B6B3201D82464008A18105904240440F3
:101D1000D8209C604000002C03D11458640D1C6036
:101D200002E01458E4085C601058DA248007C00F01
:101D3000D860640010590F2404401C61DA24640048
:101D40001259FF2000020240120ADA61320189189A
:101D5000B931FF3109681E6219752C68A118B931B3
:101D6000FF3109680140090A59752C68A118B93179
:101D7000FF310C68FF2109040C40240C9C752C6871
:101D8000DC214900A418A4460C1C64442468240ED9
:101D9000DC752C68A418A4460C1C644464681C768A
:101DA0002C68A418A4460C1C644464682040000AF3
:101DB00058762C68A01840184068FF21090401409B
:101DC000090C9976286820218218B932FF325268AE
:101DD000120EDA762B1C3D332A68002E0BD1D06808
:101DE0000143D1601A78D2B2622A10D0722A10D080
:101DF000422A16D10FE01069014311611A78D2B25C
:101E0000622A0AD0722A0AD0522A0AD103E0322268
:101E100008E0522206E0122204E0222202E04222DE
:101E200000E0012200201A703870FEBD7047704734
:101E3000F8B5002901D1436B00E0836B06680A0105
:101E4000D8256D00B418675904253D40AC469D6007
:101E50006746D8256D00002F03D167597F0D1F609D
:101E600002E06759FF085F606559B618AD07ED0FCE
:101E7000DD60DA256D0067590F253D40DA271D61C9
:101E80007F00E559FF2424022540B9362D0AFF368C
:101E9000DD61356819621D750668B518B935FF35FD
:101EA0002D6825402D0A5D750768BD18B935FF35C9
:101EB0002E68FF252D042E40360C9E750768BE182F
:101EC000B936FF363668360EDE750768BE18B93685
:101ED000FF3676681E760768BE18B936FF36766814
:101EE0003440240A5C760668B418B934FF34646858
:101EF00025402D0C9D760768BA18B932FF3252681A
:101F0000120EDA7602682023002905D1D468234313
:101F1000D36053690A2404E01469234313615369AD
:101F20005024A3435361031C3D331C78222C02D060
:101F30001C78322C03D15569114C2C4054611A780D
:101F4000D2B200290AD1622A04D0722A04D0422ACD
:101F500010D109E032220EE052220CE0622A05D0B4
:101F6000722A05D0522A05D1122204E0222202E070
:101F7000422200E001221A70FFF759FF0020F8BD4D
:101F8000FF70FFFF7047000038B503681022D96862
:101F9000041C0025114205D05969080702D5802587
:101FA000DA60AD0019691022114206D0596948065D
:101FB00003D58021C9000D431A615A69D10740D564
:101FC0009968624A1140914209D09968604A11406B
:101FD000914204D099685F4A1140914231D19A6888
:101FE000900705D49A68910502D49A68900320D589
:101FF0005A6901218A435A61221C3D321178122903
:1020000003D158695449014059611378DBB2522B0E
:1020100005D0722B05D0422B05D1222304E03223B8
:1020200002E0622300E001231370201CFFF7FEFE94
:1020300002E080231B011D43236848499A680A4334
:102040009A6023685A69910706D5DB689A0703D01E
:10205000201C0021FFF7ECFE23685A69D00606D544
:102060001B69990703D0201C0121FFF7E1FE236CB7
:1020700001221D43236825649969114208D05969DA
:10208000C80505D55969080402D5216C0A432264A4
:1020900099690222114208D05969880505D5596904
:1020A000080402D5216C0A43226499690422114272
:1020B00008D05969480505D55969080402D5216C2D
:1020C0000A4322649969702211422BD0596908058C
:1020D00028D55969080425D599690A40302A12D0B3
:1020E00006D8102A0CD0202A18D1226C102113E017
:1020F000502A0BD0602A0CD0402A0FD1216C0BE063
:10210000226C082108E0226C202105E0226C80214D
:1021100002E08022216C52000A4322649A697021F5
:102120008A439A61226C002A0ED05A6804210A431D
:102130005A60221C3D32012111705969084A201C45
:102140000A405A61FFF71EFF38BDC0460100000477
:102150000001000800000110FF70FFFF19050100D9
:10216000A470FFFF70B58901002815DAC0B20F23F3
:102170000340083B124A9B089B009B180322104017
:10218000FF24C200DD69201C904085430C40944030
:102190002A1C2243DA6112E082080A4B03249200CF
:1021A000D2182040C023A0409B00FF24D558261CF5
:1021B0008640B5430C408440281C2043D05070BD5D
:1021C00000ED00E000E100E01F2318400123834000
:1021D000181C014B1860704700E100E0094B421EDB
:1021E00001209A420DD8084BC0215A60074A0906BF
:1021F000106A0002000A0143116200200722986061
:102200001A607047FFFFFF0010E000E000ED00E003
:10221000054B1A68042802D11043186002E004211B
:102220008A431A607047C04610E000E0704708B566
:10223000FFF7FCFF08BD0000F0B50A6887B0039205
:102240000023039ADA4000D197E00122039C9A40D0
:1022500014400292019400D18DE04A681024151CAC
:10226000A5430095022D0FD1DC08A4000725041911
:102270001D40AD00266A0F27AF40BE430F69AF4037
:102280003D1C371C2F43276204680327A4463D1CCE
:102290005C00A540ED43664617402E40A7403743FB
:1022A000009E0760013E012E0DD88768CE682F4042
:1022B000A6403E4386604768029EB743D606F60FA7
:1022C0009E403E434660C6688F683540A7403D4308
:1022D000C560D4004FD52A4D0124AE692643AE61B6
:1022E000AD69284E25400595059D9D08AD00AD19A9
:1022F00003261E40AF68B60000960F260297371CD3
:10230000009EB740029EBE439027B446FF05B842E8
:1023100008D01D4FB84206D01C4F0524B84202D148
:10232000022400E00024009F6646BC403443AC60B9
:10233000019F174CFD432668D70301D42E4001E0CE
:10234000019F3E4326606668970301D42E4001E05A
:10235000019F3E436660A668D70201D42E4001E08B
:10236000019F3E43A660E668970201D4354001E034
:10237000019D3543E560013363E707B0F0BDC0461A
:10238000001002400000014000040048000800481E
:1023900000040140002A01D0816100E081627047A1
:1023A00070B5041E3DD0EA25FF35435DDBB2002B3E
:1023B00004D1F42252008354FDF7C0FF0323606868
:1023C00063550021231C1C330022814208D00126C2
:1023D00019735E73DA739A61DA611A628919F2E726
:1023E0000A21FF316318111C81420AD000225E1EAF
:1023F0001A7031709A700131F260326172611C336F
:10240000F2E722680020931C0121961D5032D987E3
:10241000D887F0871080044ADA87631DD877615522
:1024200000E0012070BDC04600BFFFFF03688022AE
:102430005833198812020A4300201A80704710B5D9
:10244000F4225200845C031C0220012C0CD00120D9
:102450009854002904D1196880204C31088001E08B
:10246000581DC1770020985410BD0000F7B5051C19
:10247000C8B244B21C26002C04DA7F240C407443FA
:10248000283403E0341C4C430934FF342C197F26D4
:102490003140C009E370F42360702170E2605B009A
:1024A000E95C0220012900D11BE10121E954E07817
:1024B0002B68032819D826788A49B6009E19FDF79B
:1024C0002FFE020E070A30880140802080000AE0BB
:1024D0003088014008E030880140C02002E03088A8
:1024E00001408020C0000143318020787E4F810070
:1024F0005918384384467D4E088800913040614623
:102500000843011C0098B4460180A07A2178002875
:1025100060D16778181C0197A78850300097019FF9
:10252000002F1ED00288C90059188020009F8918EA
:10253000C0000122091897430F80227892009A1850
:1025400011884F0603D50E4069490E431680227844
:10255000654892009B181988664A0A4020214A4023
:10256000B9E00688C9008919634E5918009F891976
:102570000126B7430F8001882078604FC0000818FB
:10258000D91908183E2A08D95109D60601D10139AE
:1025900089B25B4A8902114304E05108324200D0FB
:1025A000013189020180227892009A1811884F0423
:1025B00004D56046014053480143118022789200BF
:1025C0009B181988504A0A40C02189014A4046494F
:1025D0000A4381E08900591808884C4A454F024057
:1025E0004B4802430A80191C503120780A88C000E9
:1025F00080188022E688D20018188018012296439D
:102600000680088821783C4EC9005918091820898D
:102610008919904308802178627880268900F60124
:102620005918002A2ED10A88324204D0604602404E
:10263000344802430A8022782D4992009A18108863
:10264000460603D566463040084310802278664629
:1026500092009A18108830400143118022782A484D
:1026600092009A181188204E0140C02080014140FC
:1026700031431180227892009B181A881740374303
:102680001F802AE008881F4A304203D06646304047
:10269000104308802178890059180888460604D517
:1026A00066463040124E30430880217866468900E5
:1026B00059180888304002430A8022780A4892005C
:1026C0009A1811880F400743178022780E4992000C
:1026D0009B181A880A4002431A80F42300205B00EA
:1026E000E854FEBD8F89FFFF8080FFFF0F0F0000C1
:1026F000C080FFFFBF8FFFFF04040000060400003E
:102700000080FFFF80C0FFFF8FBFFFFF0F0E0000A4
:102710008081FFFFCAB253B2F0B5041C1C20002B0D
:1027200004DA7F230B404343283303E0031C4B436D
:102730000933FF33E3187F20D20901405A70F42295
:1027400019705200A15C0220012900D187E001210B
:10275000A154987A5D7822681E78414900281ED1DC
:10276000B60096193088002D0CD0450604D53D4D95
:1027700028403D4D284330801B789B00D21810889C
:102780003A4B3CE0470404D5364D2840384D2843A9
:1027900030801B789B00D2181088364B2FE08027A2
:1027A000FF01B6002F48BC469619002D29D1358867
:1027B0003D4203D02E4F05403D4335801D782A4EC3
:1027C000AD0055192F88B4467E0603D507406646EE
:1027D00037432F801D786646AD0055192F88384045
:1027E00006432E801878234F8000101805883D403E
:1027F0000D4305801B781D489B00D21813880340A9
:1028000027E0378865462F4203D0194D07402F43F4
:1028100037801E78B600961937887D0603D5124D8D
:1028200007402F4337801E78114DB6009619378820
:1028300038400543358018780C4E80001018058804
:102840000C4F35400D4305801B789B00D218138830
:102850003B401943F42300205B001180E054F0BD9D
:102860008080FFFF0F0F0000C080FFFFBF8FFFFFC2
:1028700080C0FFFF8FBFFFFF70B57F2421401C2465
:102880004C430934FF340419E56822610022636176
:10289000A26162702170AB4203D95B1B63612B1C88
:1028A00000E062610268A57A101CC9005030002D5A
:1028B00019D10088334D4118501941183E2B09D9C0
:1028C000580980B2DE0601D1013880B22E4B800259
:1028D000184306E0580880B2DD0701D5013080B208
:1028E0008002088040E00588284E6918951969180B
:1028F0003E2B09D95D09ADB2DE0601D1013DADB275
:10290000214EAD02354306E05D08ADB2DE0701D5CC
:102910000135ADB2AD020D8065782178002D1AD158
:102920000088184DC9004118501940183E2B09D98C
:10293000590989B2DE0601D1013989B2124B8902E7
:10294000194306E0590889B2DD0701D5013189B282
:102950008902018008E0012D06D10088C9005118C4
:10296000084E091889190B80237800209B00D21883
:102970001188074B0B40C02189014B4005490B438F
:10298000138070BD060400000080FFFF02040000F9
:102990008FBFFFFF8080FFFF7F2319401C23594317
:1029A0004018FC30808C704710B5F4225200845CD3
:1029B000031C0220012C35D00120CCB2985460B207
:1029C0001C22002804DA7F2008405043283003E00E
:1029D000101C48430930FF301818012282707F22F2
:1029E0001140E409017044701A680F48002904D1AD
:1029F00014880E4921400E4C0DE089005218002C1D
:102A000004D014880B492140102404E014880A499A
:102A1000214080246401614008431080F42200209A
:102A20005200985410BDC0468080FFFFBFBFFFFF1B
:102A300010100000BF8FFFFF8FBFFFFF021CC8B246
:102A400043B270B51C24002B04DA7F230B40634390
:102A5000283303E0231C4B430933FF33D3180024EE
:102A60009C707F2421401970C009F42158704900DE
:102A7000545C0220012C30D0012050541C78116885
:102A80005D78A40015480C19002D0FD025886E061E
:102A900004D5134E3540134E354325801B789B00DB
:102AA000C9180C88104B234030240FE025886E0491
:102AB00004D50B4E35400D4E354325801B789B00C9
:102AC000C9180C880A4B2340C024A4016340184352
:102AD000F42308805B000020D05470BD8080FFFF8D
:102AE0000F0F0000C080FFFFBF8FFFFF80C0FFFF00
:102AF0008FBFFFFF70B58024E400001901335B082D
:102B000082180C1C002B08D0657826782D02601ADC
:102B1000354385520234013BF4E770BDF7B5051C1F
:102B2000081C111C7F2202401C24544328342C19F9
:102B3000E7680020012621616361A0616670227050
:102B4000BB4202D9DB1B636101E060611F1CA37AF9
:102B5000BEB22868002B0FD1A288331CFFF7CAFF32
:102B60002B6821781A1C50321288C9005B189B18F8
:102B7000244A9B181E8037E09300C35AD2009C461B
:102B8000031C5033019363465B0609D5019B8218F1
:102B90001B889C461C4B6244D2181780228908E08F
:102BA000019B82181B889C46164B6244D2181780E2
:102BB000E288331CFFF79EFF61782A68237800299A
:102BC00008D19B00D2181188104B0B4010490B43C1
:102BD000138009E0012907D19B00D31819880B4AFB
:102BE0000A400C490A431A8023782A689B00D318AC
:102BF0001988094A00200A4030214A4007490A43FF
:102C00001A80FEBD02040000060400000F0F000041
:102C1000C080FFFF80C0FFFFBF8FFFFF8080FFFFEE
:102C200070B58024E40000195E0882180C1C351C65
:102C3000002D07D0601A805A013D2070000A607094
:102C40000234F5E7740009191419DA0701D523884D
:102C50000B7070BDF0B5036885B00633DB8F041CC4
:102C60001BB2002B11DB23680633DA8F500500D42A
:102C70009CE1D98FC24A201C0A40DA87FDF7A4FBE9
:102C8000201C0021FFF7DBFB90E16F460E3700238D
:102C90003B802068831DDA8F03AB92B21A8012B298
:102CA000002AE0DA19880F221140009100D09EE03E
:102CB00019881023194027D10288B24BA56B134005
:102CC000221C038028321278031C50331B88D20048
:102CD0008018AD4AC01880180388201C9B059B0DE6
:102CE0002364EB18A363FDF75CFB631DDA7F002A06
:102CF000CFD0E26B002ACCD1D87F80210843216855
:102D00004C310880DA77C4E703883B803A8816059F
:102D100020D5031C50331A8884235B00E35C9B4955
:102D2000DB00C3189B185B181B8884256D009B056E
:102D3000F6269B0D621976009361A1199288FFF720
:102D40006FFF2368924A1988201C0A401A80FDF7F9
:102D500011FB9EE73A8812B2002A9ADA8C4A8B4914
:102D600013400380031C50331A8884235B00E35C08
:102D7000DB00C3189B185B181B8884229B0552003C
:102D80009B0DA518AB61002B07D0AA882969FFF716
:102D900047FF2E69A86933182B61201C0021FDF71D
:102DA000F3FA22687949131C50331888EB6810181D
:102DB00040183E2B09D9590989B2DD0601D10139E4
:102DC00089B2744B8902194306E0590889B2DE07BB
:102DD00001D5013189B28902018011886E4B0B4007
:102DE000C02189014B406D490B43138051E7009D81
:102DF000AD00435B01953B803B881BB2002B59DA49
:102E0000009E43191C2575431988614A09350A40FB
:102E1000FF351A806519A97A031C50332A780029D6
:102E20000FD11B88D20082185849D2185218168820
:102E3000B605B60D2AD0AA882969331CFFF7F0FE23
:102E400024E091001B88D200095A8218D2184E043F
:102E500007D54D4952181688B605B60D0CD0EA882C
:102E600006E04A4BD2181688B605B60D04D02A895A
:102E70002969331CFFF7D4FE2B7820689B00C31808
:102E80001988474A0A4047490A431A80A9698B1999
:102E9000AB612B6929789A196B692A61002B02D0E2
:102EA000E868864203D2201CFDF76EFA02E0201C7F
:102EB000FFF7E2FC3B881D0600D4EAE6009E1C25D5
:102EC00020687543019E2F4A8319198828350A40C6
:102ED00065191A80AE7A031C50332A782969002EAE
:102EE0000ED11B88D2008218D218274BD218138813
:102EF0009B059B0DAB6128D0AA88FFF7FBFD24E062
:102F000096001B88D200365A8218D218760608D549
:102F10001D4E921913889B059B0DAB610BD0EA885F
:102F200007E01A4BD21813889B059B0DAB6102D0AA
:102F30002A89FFF7DFFD2B7826689B00F318198894
:102F4000174A0A4018490A431A80236829781A1C2C
:102F500050321288C8001B180B489B181B181A887F
:102F60002B699205920DAA619A186B692A61201C3F
:102F7000002B02D1FDF715FA8BE6FFF7CFFD88E6AF
:102F8000FFFBFFFF0F8FFFFF02040000060400009D
:102F90008F0F00000080FFFF8FBFFFFF8080FFFFCB
:102FA0000F0F0000C080FFFF80C0FFFF2268931D4D
:102FB000D98F4D0403D5D88F25490140D987D98FA2
:102FC0008E0403D5D88F23490140D987DB8FD804DD
:102FD0000FD5931CDA8F04218A43DA871E4A201CFE
:102FE000DA87FDF70FFA23681C4A0633D98F0A40A7
:102FF000DA872268931DD98F0D0512D5D88F18490D
:1030000002320140D987D18F08200143D187D18F67
:1030100004200143D187DB8FDE0402D4201CFDF79E
:10302000DFF923680633DA8F900506D5D98F0D4A6C
:10303000201C0A40DA87FDF7C0F923680633DA8FCF
:10304000D10503D5D98F084A0A40DA8705B0F0BD0B
:10305000FFBFFFFFFFDFFFFF00BDFFFFFFEFFFFF31
:10306000FFF7FFFFFFFDFFFFFFFEFFFF30B51C2452
:103070000D0605D57F2529404C432834001903E06F
:1030800061430931FF314018002A02D182728380E6
:1030900004E00122C3801B0C82720381002030BD3A
:1030A000F0B5041C006885B0C00703D42168890707
:1030B00055D49DE0BB4D0C236A681A40042A0BD0FE
:1030C0006A681340082B0FD16B68C02252021A4065
:1030D00080235B029A4207D12B689A03E6D5636886
:1030E000002BE3D10120EFE16368012B13D02A68A4
:1030F000002B0AD1AC4B13402B602A68AB4B13401A
:103100002B60FEF789FB061C25E0052B08D18023E8
:10311000DB0213432B602A6880235B02134305E024
:10312000A14B13402B602A68A04B13402B60FEF785
:1031300073FB061C2B689803B8D4FEF76DFB9C4B01
:10314000801B9842F6D90320BEE1FEF765FB984B41
:10315000801B9842F7D82B689903F6D4A6E7914DC7
:103160000C236A681A420BD06A681340082B15D1E9
:103170006B68C02252021A4080231B029A420DD172
:103180002B689A0702D5E368012BABD12B68206925
:10319000F821C2008B4313432B6029E0E16801232F
:1031A0002A68002916D013432B60FEF735FB061C56
:1031B0002A687C4B900705D4FEF72EFB801B022863
:1031C000F6D9C0E720691A68C100F82082430A4393
:1031D0001A600DE09A432A60FEF71EFB061C2B685E
:1031E000990705D5FEF718FB801B0228F7D9AAE737
:1031F0002268120703D423685B0722D488E0694D54
:10320000E06901236A6A00280DD013436B62FEF760
:1032100003FB061C6B6A9907EDD4FEF7FDFA801BD1
:103220000228F7D98FE79A436A62FEF7F5FA061C7F
:103230006B6A9A07DFD5FEF7EFFA801B0228F7D9F1
:1032400081E7584D8023EA695B0500271A4207D1C0
:10325000EA6901271A43EA61EA6913400393039B71
:10326000544E802332685B001A4205D0A368012BBC
:1032700012D12A6A13432DE0326813433360FEF7FC
:10328000CBFA01903368D805F0D4FEF7C5FA019B5C
:10329000C01A6428F6D956E70122002B0AD12B6AFE
:1032A00093432B622B6A042293432B62FEF7B4FAFA
:1032B000061C24E0052B07D12B6A04210B432B624B
:1032C0002B6A1A432A6206E02B6A93432B622B6A0D
:1032D000042293432B62FEF79FFA061C2B6A990780
:1032E00010D4FEF799FA324B801B9842F6D92AE7A0
:1032F000FEF792FA2E4B801B984200D923E72B6AE7
:103300009A07F5D4012F03D1EA692B4B1340EB61E7
:103310002368DB063FD56269224D0423012A1AD1B6
:10332000696B0B436B636B6B1A436A63FEF774FA4A
:10333000061C6A6B1B4B900705D4FEF76DFA801BC9
:103340000228F6D9FFE6A0695A6BC100F820824333
:103350000A435A631FE005320AD16A6B9A436A63D3
:10336000A1696B6BCA00F8218B4313436B6312E0B6
:103370006A6B13436B636B6B012293436B63FEF7C2
:103380004BFA061C6B6B9A0705D5FEF745FA801BB6
:103390000228F7D9D7E623689B060FD4626A002A71
:1033A00048D174E000100240FFFFFEFFFFFFFBFF6B
:1033B0008813000000700040FFFFFFEF434D0C2317
:1033C0006A681A409A4209D06A681340082B0DD1E6
:1033D0006A68C0235B021A409A4207D16B6BD8031C
:1033E000DCD5216A012900D07CE6D7E7226A002AD1
:1033F00010D06A6B80235B0213436B63FEF70CFAF9
:10340000061C6B6BD803C9D4FEF706FA801B022892
:10341000F7D998E66A6B2E4B13406B63FEF7FCF905
:10342000061C6B6BD903B9D5FEF7F6F9801B022891
:10343000F7D988E6254D0C2369680B40082B00D18D
:1034400050E6244B022A30D12A6813402B60FEF745
:10345000E3F9061C2A681D4B90011AD4DA6A0F2181
:103460008A43216B0A43DA62E26AA16A586811430F
:10347000194A02400A435A601968802252040A43DA
:103480001A60FEF7C9F9041C2B689A0107D50020C1
:103490001AE0FEF7C1F9801B0228DBD953E6FEF7DC
:1034A000BBF9001B0228EFD94DE62A6813402B60B8
:1034B000FEF7B2F9041C2B689801E8D5FEF7ACF9C9
:1034C000001B0228F7D93EE605B0F0BD001002400F
:1034D000FFFFFEFFFFFFFFFEFF7FC2FF30B51C4C6A
:1034E00089B0211C1022684600F024FA04AD211C8A
:1034F00010311022281C00F01DFA16490C224B68CE
:103500001A40082A05D00C2A1FD0042A1BD11248C1
:103510001CE09A02120F6846C96A845C0F220A40B6
:10352000A95CC0225202802013404002834201D194
:10353000094804E0934201D1084800E00848FCF73C
:1035400003FE604302E0064800E0044809B030BDD5
:10355000E83A0008001002400024F400006CDC028D
:1035600000127A00F7B54F4F01233A68051C01910C
:103570001A4091420AD82B68980712D54A4AF0207F
:1035800051688143A868014351600AE03A68019993
:103590009A430A433A603A6813408B42EBD00120C9
:1035A0007EE0D90707D43968019801233D4A1940C4
:1035B000884257D35CE06B683B4C012B03D12268F7
:1035C00091030FD4EBE7022B03D12268900109D4B9
:1035D000E5E7032B03D1626BD10303D4DFE7226855
:1035E0009007DCD5626803218A4313436360FEF7CA
:1035F00013F96B68061C012B0CD162680C23134075
:10360000042BD0D0FEF708F9284B801B9842F4D940
:10361000032045E0022B0BD162680C231340082BDA
:10362000C1D0FEF7F9F8214B801B9842F4D9EFE79F
:10363000032B0AD062680C231A420CD1B3E7FEF7C1
:10364000EBF81A4B801B9842E2D862680C231340B7
:103650000C2BF4D1A7E7FEF7DFF8144B801B984240
:10366000E8D9D5E711689943116012681A4296D1DA
:1036700029680D4C490705D562680D4B1340EA686F
:1036800013436360FFF72AFF63680A4A1B061B0F98
:10369000D35CD840084B18600020FEF792F8002059
:1036A000FEBDC0460020024000100240881300000A
:1036B000FFF8FFFF553B000844000020014B18684D
:1036C0007047C04644000020F0B5041C006885B077
:1036D000C0035CD5424D8023EA6900215B0501915E
:1036E0001A4208D1EA691A43EA61EA69134003936E
:1036F0000122039B01923B4E802332685B001A42F9
:1037000007D02A6AC0218900354B0A40364E10D1B5
:1037100013E0326813433360FEF77EF8071C33680A
:10372000D805EED4FEF778F8C01B6428F7D903203B
:1037300053E0606801408A420DD12A6A61681640F0
:10374000019A0E43264B2E62012A20D1D969274ABD
:103750000A40DA611BE01A6A80201F6A400238437F
:1037600018621F6A2248111C3140384018621962E1
:10377000D107E2D5FEF750F8071C2B6A9A07DCD474
:10378000FEF74AF81B4BC01B9842F6D9CFE72368D7
:10379000D80706D5124A0320116B8143A068014364
:1037A0001163990606D50E4A1020116B8143E0681B
:1037B00001431163990306D5094A8020116B8143A7
:1037C0006069014311630020590506D5044B40216F
:1037D0001A6B8A4321690A431A6305B0F0BDC046DB
:1037E0000010024000700040FFFCFFFFFFFFFFEFF2
:1037F000FFFFFEFF88130000114B8022196912059C
:103800000A4310B51A6119690E4A0A401A61016823
:10381000426883680A43C1681A430A4301690B047A
:103820001A43094B5A601C684169084A0902224040
:103830000A431A601A6860210A431A6010BDC04624
:1038400000100240FFFFFFF7006C0040FFC0FFFFC9
:10385000024B80211A680A431A607047006C0040CE
:1038600038B5041CFDF7D8FF051C601C09D00123E6
:10387000002C07D0FDF7D0FF431B9C429B415B42CD
:1038800000E00023184A01219068084202D002207B
:103890000343D16090680221084203D0042003430F
:1038A0001148C1609168480504D520210B430E4999
:1038B0000420C8609168C80504D508210B430A4953
:1038C0000420C8609168880504D510210B4306497F
:1038D0000420C86091680822114201D00249CA60E0
:1038E000002BC2D0181C38BD006C004070B50D4EC6
:1038F0000D4D0024AD1BAD1005D0A300F3580134CD
:103900009847A542F9D100F0E3F8084E084D00248D
:10391000AD1BAD1005D0A300F35801349847A54264
:10392000F9D170BD7C3B00087C3B00087C3B000863
:10393000843B0008F0B50F2A35D9031C0B439C07C4
:1039400035D1161C103E36093501451910350C1CB1
:10395000031C27681F6067685F60A7689F60E7684F
:103960001034DF601033AB42F3D1731C1B01C51858
:10397000C9180F231340032B1BD91C1FA4080134A3
:10398000A4000023CE58EE500433A342FAD1ED1820
:10399000C91803231A4005D00023CC5CEC54013332
:1039A0009342FAD1F0BD051C002AF5D1FAE7051CB7
:1039B000F2E71A1CF8E7C04608B5034B002B02D00B
:1039C000024800F005F808BD00000000E1390008D9
:1039D00008B5011C00220020002300F019F808BDE2
:1039E00038B5094B094DED1AAD1009D0013DAC00B9
:1039F000E41800E0013D23689847043C002DF9D10C
:103A000000F06CF838BDC046843B0008883B0008D5
:103A1000F0B54F464646C0B498462B4BA4251B68CC
:103A20006D005C5983B0061C0F1C91460193002C5D
:103A300044D065681F2D1ADD244B002B02D10120D4
:103A400040421CE0C820400000E000BF041EF6D049
:103A500000254560A42301985B00C05801992060AF
:103A6000CC50C4235B00E550C6235B00E550002E1C
:103A70000AD16B1C0235AD00636000202F5103B0EA
:103A80000CBC90469946F0BDAB00E318882248462E
:103A90009850C4204000221810680121A940084312
:103AA00010608422520040469850022EE1D1C62276
:103AB0005200A318186801431960DAE71C1C4D3442
:103AC000FF345C51B5E7C046783B000800000000B9
:103AD000F8B5C046F8BC08BC9E467047F8B5C0466D
:083AE000F8BC08BC9E467047CB
:103AE80002030405060708090A0B0C0D0E0F101037
:103AF8000102030405060708090A0B0C0D0E0F1036
:103B08000002010200020102000201020002010299
:103B18000002010200020102000201020002010289
:103B280043414E746163740043414E746163742071
:103B38006465760043444320436F6E6669670043BB
:103B4800444320496E746572666163650000000035
:103B5800000000000001020304060708095631307E
:103B68003133004E41313233000000004300000081
:043B780058010020D0
:083B7C00B9390008E900000856
:043B8400C100000874
:103B880041060008EF05000869060008F505000869
:103B9800FD0600080907000815070008790700084E
:103BA8003107000895070008B10700080403090455
:103BB800120100020202004050ADC460000201027E
:103BC8000301000000127A0009024300020100C04C
:103BD8003209040000010202010005240010010559
:103BE80024010001042402020524060001070582BD
:103BF8000308001009040100020A0000000705017B
:103C080002400000070581024000000099160008E4
:103C18005D160008E51500080000000049150008B9
:103C28002F150008AD150008000000000000000076
:103C380000000000891500087D150008951500088A
:103C4800A11500080A06000200000040010000005B
:103C580009074300020104C03209040000010202FE
:103C680001000524001001052401000104240202BA
:103C78000524060001070582030800FF0904010066
:103C8800020A000000070501024000000705810242
:103C98004000000009024300020100C0320904008C
:103CA80000010202010005240010010524010001A1
:103CB80004240202052406000107058203080010F7
:103CC80009040100020A00000007050102000200C1
:103CD80007058102000200000000000044040020E3
:103CE800AC040020140500200000000000000000C3
:103CF80000000000000000000000000000000000BC
:103D0800000000000000000000000000743B0008F4
:103D1800000000000000000000000000000000009B
:103D2800000000000000000000000000000000008B
:103D3800000000000000000000000000000000007B
:103D4800000000000000000000000000000000006B
:103D5800000000000000000000000000000000005B
:103D6800000000000000000000000000000000004B
:103D7800000000000000000000000000000000003B
:103D880001000000000000000E33CDAB34126DE6D8
:103D9800ECDE05000B000000000000000000000041
:103DA800000000000000000000000000000000000B
:103DB80000000000000000000000000000000000FB
:103DC80000000000000000000000000000000000EB
:103DD80000000000000000000000000000000000DB
:0400000508000DE5FD
:00000001FF
